:020000022000DC
:1060000000000120B9010300F9010300FB010300B6
:10601000FD010300FF010300010203000000000076
:1060200000000000000000000000000059270300ED
:1060300005020300000000007927030009020300A5
:106040000B0203000B020300B53803000B02030030
:106050000B0203000B0203000B0203000B02030000
:106060000B0203000B0203000B0203000B020300F0
:106070000B0203000B0203000B0203000B020300E0
:106080000B020300B12403000B0203000B02030008
:106090000B0203000B020300458D02000B020300FC
:1060A0000B0203000B0203000B0203000B020300B0
:1060B0000B0203000B0203000000000000000000C0
:1060C0000B0203000B0203000B0203000B02030090
:1060D0000B0203000B0203000B0203000000000090
:1060E00000000000000000000000000000000000B0
:1060F00000000000000000000000000000000000A0
:10610000000000000000000000000000000000008F
:10611000000000000000000000000000000000007F
:10612000000000000000000000000000000000006F
:10613000000000000000000000000000000000005F
:10614000000000000000000000000000000000004F
:10615000000000000000000000000000000000003F
:10616000000000000000000000000000000000002F
:10617000000000000000000000000000000000001F
:10618000000000000000000000000000000000000F
:1061900000000000000000000000000000000000FF
:1061A00000000000000000000000000000000000EF
:1061B00000000000000000000000000000000000DF
:1061C00000000000000000000000000000000000CF
:1061D00000000000000000000000000000000000BF
:1061E00000000000000000000000000000000000AF
:1061F000000000000000000000000000000000009F
:10620000F1EE103A43F08073E1EE103A704700BFB0
:1062100010B5054C237833B9044B13B10448AFF3E0
:1062200000800123237010BD4C38002000000000C6
:10623000FC84030008B5034B1BB103490348AFF3CB
:10624000008008BD0000000050380020FC840300DE
:10625000154B002B08BF134B9D46A3F5803A002138
:106260008B460F461348144A121A0EF0AFF90F4B23
:10627000002B00D098470E4B002B00D098470020F1
:10628000002104000D000D48002802D00C48AFF397
:1062900000800EF031F9200029000DF081FB0EF096
:1062A00005F900BF00000800000001200000000008
:1062B000000000004C380020105A002000000000B0
:1062C0000000000010B5014688B00D4C0D4802F0EA
:1062D00031FD002320226946CDE90033CDE90333A7
:1062E000CDE905330293079301F0ACFA0649204645
:1062F0000CF0DEFE694620460CF028FF08B010BD09
:10630000F8520020983A0020187A030038B5084C5B
:1063100020460D460CF0FAFE064920460CF0C8FE59
:10632000294620461022BDE838400CF0A3BF00BF2C
:10633000F8520020287A0300F8B5144F144C154D7C
:10634000154E384602F072FE2246144938460EF0C9
:1063500075F8284602F004FF2246114928460EF03F
:106360006DF8104D30464FF4807103F04FFB22461C
:106370000D4930460EF062F8284602F03FFD2246F5
:1063800028460A49BDE8F8400EF058B8D838002031
:10639000003600204839002090390020796502003D
:1063A0006165020068380020A19A02003965020088
:1063B0002DE9F0413A4E3B4C3B4D3C4FDFF8188104
:1063C00030464FF4E1310DF06FF8394930460CF0AA
:1063D000BDFE384930460CF0B9FE2046012102F0DE
:1063E00067FC2046042102F05DFA2046324902F0A3
:1063F000FBFB00222046012102F084FA2046042102
:1064000002F01AFC20462D4901F068FC2C49204678
:1064100001F066FC2B4802F02FFE28462A49132281
:1064200002F09AFE13222949284602F091FE2846DE
:1064300002F0CCFE384603F077FB404604F52275A7
:1064400002F000FD4046642102F0D0FC06212846FF
:1064500000F04CF9284600F031F93946284600F0A2
:10646000E9F804F5337000F0FBF82846012100F04C
:1064700071F9F4222846202100F068F928461E21EF
:1064800000F062F92846002100F0D2F910493046A8
:106490000CF05CFE30460F49BDE8F0410CF056BEF2
:1064A000F8520020983A0020483900209039002006
:1064B000447A0300607A0300807A0300C562020018
:1064C0000D630200D8380020907A0300A47A0300FC
:1064D000B87A0300F87A03006838002030B5144C0D
:1064E000144D91B00BE009F09DFE40226946204614
:1064F0000CF0F0FE69460246284603F001F92046FA
:106500000CF058FF03460220002BECD1094C084D3B
:1065100005E002F01BFFC1B228460CF077FF2046D1
:1065200002F0C4FE03462046002BF2D111B030BD6C
:10653000F85200209039002010B5074B044640F86F
:10654000183B00F0D9FA2046044B40F8083B01F014
:10655000F5FE204610BD00BF147C0300707B0300D5
:1065600010B5044B044640F8083B01F0E7FE204616
:1065700010BD00BF707B030010B5074B044640F808
:10658000183B00F0B9FA2046044B40F8083B01F0F4
:10659000D5FE204610BD00BF687C0300707B030061
:1065A00072DF704773DF704774DF704777DF7047C3
:1065B00038B5054608460C4601F0EEFE102803D01B
:1065C00080280ED0012038BDEB7FA2881B2B0EDC6B
:1065D000E9180320E85448704A80EB7F0433EB77D6
:1065E000F0E7A368002BEDD0E97F0D2901DD002045
:1065F00038BD6A18112068540721517058681C680A
:106600009968DB68C2F80E30C2F80600C2F8024092
:10661000C2F80A10EB7F1233EB77012038BD00BFC0
:1066200010B500210446C1771F220DF0CFFF204690
:1066300010BD00BF30B5D1E9042485B0CD68074B4B
:1066400000936946CDE902240195FFF7B1FF0446A6
:10665000684601F073FE204605B030BD887B03001C
:10666000F0B589B0064620221348694602F0D0FAF8
:10667000F37FC2181D2A0CDDC3F11D04E4B2E21839
:106680001D2A4FF00005D8BF082705DD284609B0B0
:10669000F0BD044601250927F218601CF054694634
:1066A0005770901C22460DF069FFF27F02321444AD
:1066B0002846F47709B0F0BD983A002010B504469A
:1066C000094802F0F1FAE37F1C2B01DD002010BD28
:1066D000E2180221E1540A2390705370E37F0333E0
:1066E000E377012010BD00BF983A0020C27F1C2A2A
:1066F00001DD0020704710B403469C180220985416
:106700000120A1706070DA7F0332DA775DF8044B04
:10671000704700BF10B51F22044600210DF056FF40
:10672000064B0749074A23620023E377C4E90C12AA
:10673000C4E90E33E3622364204610BDFF0101006B
:106740002000F40020001E00C1867047018681866B
:106750004286704780F82210704700BFF0B502EB08
:10676000820389B0154603EB830390F821209B0038
:1067700004460020CDE90410ADF81430931E0290B9
:10678000CDE906000E4603908DF80820092B09D8A4
:10679000DFE803F00505080808050805080504F109
:1067A0002403039394F82330002B38D11E4F1F4944
:1067B000FA7F94F81FC08A8104F1200002AA8F603A
:1067C0000C60A7F53377A1F804C0FFF7E9FE10B11C
:1067D000002009B0F0BD94F820100191384602F075
:1067E00063FA019902460120FFF7E0FE0028EFD18D
:1067F00094F820000121FFF7D5FE0028E8D13846A3
:1068000002F0B0FA628FA686AA424FF0010094BF50
:10681000921A521B628784F8230009B0F0BD94F8E5
:106820002000FFF7C1FEC1E7643D0020843A00204C
:10683000F0B5002361F30F03044661F31F4389B0F1
:106840008363FA21314802F037FAE58E94F821107B
:10685000278E049705EB850303EB830300229B003F
:106860000592ADF814308B1E0292CDE906220392F8
:106870008DF80810092B09D8DFE803F00505080892
:1068800008050805080504F12403039394F8233050
:10689000002B36D11E4E1F49F27FE37F8A8104F11F
:1068A000200002AA8E600C60A6F533768B80FFF77D
:1068B00077FE10B1002009B0F0BD94F820100191CE
:1068C000304602F0F1F9019902460120FFF76EFE11
:1068D0000028EFD194F820000121FFF763FE002883
:1068E000E8D1304602F03EFA638FA7869D424FF012
:1068F000010094BF5B1BDB1A638784F8230009B097
:10690000F0BD94F82000FFF74FFEC3E7983A00204F
:10691000643D0020843A002030B50B888D88112B0F
:1069200085B0044605D0262B33D0102B25D005B0DA
:1069300030BDC36AEB40DB07F9D52E4801F0AEF954
:106940000028F4D1E36A94F82310012202FA05F535
:1069500023EA0503E3620029E9D194F82230002BF1
:10696000E5D0238F23486387FA2102F0A5F9E28E50
:10697000218E2046FFF7F2FED9E7CB7B012BD6D143
:10698000C26A03FA05F515430023C56280F8233077
:10699000CDE70B7A012BCAD1002380F823304FF4C6
:1069A000FA71144802F088F9238F5BB1658F95B1B5
:1069B000236C0BB19847658F618E2A462046FFF7FE
:1069C000CDFEB4E7236C03B19847618E00222046C8
:1069D000FFF7C4FEABE7074802F0D8F9E26B002AE4
:1069E000A5D0009503AB2946284603950CF068F91D
:1069F0009DE700BF983A002075DF704710B44FF054
:106A000010144FF448010022C0E90041C0E90222FD
:106A10005DF8044B704700BF014800F041BF00BF64
:106A2000D83D0020F8B500250D4F2E4601E0142D6D
:106A300014D0A9B2384602F07DF901350446002889
:106A4000F5D000F0D1FD0028F1D0204600F0D6FDB1
:106A5000022804BF0136F6B2142DEAD13046F8BD43
:106A6000983A002070B58E881B480C4694B0314689
:106A700002F060F923881A2B05D01F2B1CD0102B95
:106A80000FD014B070BD054600F0B0FD0028F8D05E
:106A9000284600F0ADFD0028F3D1284600F018FE8E
:106AA000EFE7694600F0FCFD0028EAD06A4631466F
:106AB0000A4801F059FBE4E754F8080F61686B4697
:106AC00003C33046BDF80030ADF802306946FFF729
:106AD00093FF14B070BD00BF983A0020B83A002070
:106AE000AADF7047ABDF7047ACDF7047ADDF7047A0
:106AF000AEDF7047B0DF704710B5044B044640F876
:106B0000043B01F01BFC204610BD00BF407B03008E
:106B100010B5054B044640F8043B01F00FFC20463D
:106B20000CF078FF204610BD407B030070B57B4B16
:106B300004461B68836196B0043001F03DFC94F874
:106B40002E30A06913F0320208BF84F82F2013F012
:106B50000C0308BF84F830300DF10102694601F0E2
:106B6000E3FB94F82F209DF8010015070DD09DF848
:106B7000001002F00F0301F00F059D424FEA1212C0
:106B80006DD243EA021284F82F2094F830301907AE
:106B90000BD003F00F0100F00F058D424FEA1313E5
:106BA00069D241EA031384F8303094F82E1011F0C2
:106BB000300340F096800FAD0F93C5E90133C5E96E
:106BC00003338DF83C10AB610021ADF809109DF83E
:106BD0000A10206A1493012363F342018DF8082000
:106BE0008DF80A1008B1037873BB94F8263013B1FE
:106BF00004F12603129394F831200023D20708935E
:106C0000079358BFE38AADF81C3004F1080004F183
:106C10002F01CDE9050154BF1846E08AADF82000E8
:106C2000294604F13203E569099505AA0020FFF71A
:106C300057FF054628B994F8253043BB237D002B28
:106C400064D0284616B070BD10900EF0AAFB02ABBF
:106C500080B2ADF84400ADF846001393C5E74FEAA3
:106C6000111101D191428CD30A462B4643EA0212FC
:106C700084F82F2089E74FEA101001D1984290D371
:106C80000346294641EA031384F830308DE7ADF816
:106C90000D009DF80E2094F82F600C90012363F3F3
:106CA000420242F608118DF80E208DF8123004AA27
:106CB0000223ADF8101003A90D90ADF83030ADF8F7
:106CC00034300A9204F124030B910DF102020AA957
:106CD0008DF80C600E93FFF705FF0028AED0054637
:106CE000AFE70F4B8DF805200FAD1B788DF8043002
:106CF000022000230F938DF80600C5E90133C5E992
:106D00000333AB618DF83C1001AB5DE721460548CC
:106D100000F086FF284616B070BD00BF943A0020F0
:106D2000347B0300203B00202DE9F0410B888E8846
:106D3000502B8AB00C46054609D0512B04D18B79D3
:106D4000012B19D0022B26D00AB0BDE8F081CB88E8
:106D5000428E9A4235D0EA8E9A42F5D16B6D002B65
:106D6000F2D095F84420648A920700F18A80224686
:106D7000294630469847E7E7836C002BE4D090F82B
:106D80004420520701F108076CD43A4629463046A0
:106D90009847A379D6E7A27B042A46D0062A20D0BA
:106DA000012AD1D1EB6C002BCED095F844201707E7
:106DB00004F1080400F1A580224629463046984790
:106DC000C2E7076D002FC6D090F84430D90768D4C9
:106DD00004F11208238A424629463046B847E38820
:106DE000B9E7EA6B002AAFD0002202A93046CDE90C
:106DF0000222CDE90422ADF80C208DF80830FFF70F
:106E000079FE2C6D54B195F84430D80700F192808A
:106E1000B5F84230EA6B30462946A047E86B09F0E6
:106E200029FA0023C5E90F338EE7E86B002878D0F4
:106E3000B5F84010278A628A07EB020C00234FF056
:106E4000020E8C45CDE90633CDE908338DF818E004
:106E500039DD40F20913ADF81C3006A93046FFF7C2
:106E600049FE71E703211A46009106AB0821384616
:106E7000CDE9066508970BF023FF002889D1AB6C9C
:106E800083E7032000211A46009006AB0846CDE9AF
:106E9000066508940BF014FF00287FF455AF6B6D66
:106EA00065E7218A069604F11208042300933A4606
:106EB000404606ABCDE9088107950BF001FF00289D
:106EC0008DD12F6D86E79DF81EC0ADF81C3004F102
:106ED00014014CF001033844ADF822208DF81E3027
:106EE0000991ADF820700DF049FB238A618AB5F84D
:106EF00042200B449BB2934238BF1346A5F8423060
:106F0000ABE703211A46009106AB0E212046CDE9DE
:106F1000066508940BF0D4FE00287FF415AFEB6CE7
:106F20004AE74FF4806009F08BF94FF48061C5E9BE
:106F30000F017FE7E86BB5F8421006960423009333
:106F4000224606ABCDE9075009910BF0B9FE0028A7
:106F50007FF464AF2C6D5BE72DE9F04F0F464FF6E1
:106F6000FF718F4289B0064615461C4626D0F18A2D
:106F700096F82E308C4228BF0C46DB0615D40DF156
:106F8000100B8C4228BF0C464FF00008718EADF8F4
:106F900010405A464FF6FF700595ADF81280FFF786
:106FA000A3FD404609B0BDE8F08F3948394601F0ED
:106FB000A9FE08B1F18E31B9F18AE0E7344801F059
:106FC000ADFE0746D3E7002002230DF1100BADF80C
:106FD0001200ADF810305A460DF10E0338460593F5
:106FE000FFF784FD43F2014398424FD000284AD175
:106FF0009DF80E8008F00108B8F1000F46D0244833
:10700000394601F097FE8246A0B300F0F9FA033842
:1070100083B2002CC5D0CDF804804FF0000998460B
:1070200005E0BDF80E30E41AA4B21D4444B3504646
:1070300000F004FBA04503464246594628BF2246BD
:107040003846BBB1ADF80E204FF00102738E8DF8BB
:1070500012200DF10E02CDE90625CDF813908DF822
:107060001790ADF81030FFF743FD0028D9D05046F7
:1070700000F0EEFA4FF00008404609B0BDE8F08F8E
:10708000DDF804808DE700F00108B5E7F18A78E7C4
:10709000983A002010B5154B044640F8043B01F027
:1070A00055F9134A0023127884F844301420032140
:1070B000A384C4F82630C4F82A3084F82E30E08245
:1070C000C4E90F33C4E91233C4E9143384F831102E
:1070D0002375A3612362E36163866363238784F876
:1070E0002F2084F83020204610BD00BF407B0300D5
:1070F000347B030070B44E68164A86600260D1E9A2
:107100000262154B154D1C78456002611425002262
:107110000321C0E90F22C0E91222C0E91422C6608F
:10712000C58280F8311080F84420027582610262C5
:107130008284C0F82620C0F82A2080F82E20C26160
:1071400042864263028780F82F4080F8304070BC4E
:10715000704700BF407B0300347B0300887B030043
:1071600010B4D1E90142CB680361C0E902425DF885
:10717000044B70478069704701230375704700BF57
:1071800080F82E10704700BFC182704741B190F85F
:107190003130C182002262F3000380F83130704741
:1071A00090F83130012262F3000380F831307047EB
:1071B00080F82F1080F83020704700BF90F84430DE
:1071C000016562F3000380F84430704710B490F812
:1071D000443090F83140C164003918BF012161F397
:1071E000041462F3C30380F8314080F844305DF842
:1071F000044B70470162704751F8322F02604968B2
:107200004160704730B5C48A83B0944223460D462E
:1072100028BF1346418E019500246A464FF6FF7041
:10722000ADF80030ADF80240FFF75EFC18B9BDF8CC
:10723000000003B030BD204603B030BD30B5C38A76
:1072400085B00A46012B28BF0123418E8DF8072007
:1072500000240DF1070502AA4FF6FF70ADF80830C3
:10726000ADF80A400395FFF73FFC18B9BDF80800D8
:1072700005B030BD204605B030BD00BF30B5C38A73
:1072800085B00A46022B28BF0223418EADF80620A6
:1072900000240DF1060502AA4FF6FF70ADF8083084
:1072A000ADF80A400395FFF71FFC18B9BDF80800B8
:1072B00005B030BD204605B030BD00BF90F82E307F
:1072C00013F0100301D11846704730B5044685B05D
:1072D00011480D4601F016FD10B1E18E11B90846B6
:1072E00005B030BD0DF1060328460024022502AA90
:1072F0000393ADF80A40ADF80850FFF7F7FB43F2EF
:107300000143984206D008B99DF8060000F001003C
:1073100005B030BD2046E3E7983A002010B490F85D
:107320002E4014F0100403D05DF8044BFFF714BE98
:1073300020465DF8044B7047A1DF7047A3DF70471C
:10734000A4DF704700238383704700BF006A00F00A
:10735000E3B800BF808B70472DE9F0410B88CE88E1
:10736000382B86B00C46054606D0392B66D0362B16
:1073700043D006B0BDE8F08100F12407002E36D1DD
:107380000A8A3846314602F0B1FC94F80C80B8F114
:10739000010F2CD0B8F1040FEBD1286A00F0BCF833
:1073A00001465C4801F0C6FC00F02AF92A8E053837
:1073B00083B2934228BF1346002B00F09A80218AA3
:1073C000E289286AAC8B8DF80D600A44E96A059160
:1073D0008DF80C80ADF81230ADF81020ADF80E40ED
:1073E00000F09AF803A9FFF7A9FF0028C1D038469A
:1073F00002F094FC06B0BDE8F081006A00F08CF861
:107400000146444801F096FC00F0FAF807466EBBCE
:1074100005F12406E289304604F1100102F066FC11
:107420002B8E2BB1F81EE38980B20138834255DAE6
:10743000304602F073FC06B0BDE8F0810B7B012BF7
:107440001AD0022B95D1836B002B92D090F83C2060
:107450008F8892071FD401F11006E2893146284631
:10746000984761893846FFF76BFF82E705F12407EB
:10747000384602F053FCBDE7436B002B3FF479AF75
:1074800090F83C20D10717D404F11006E289314668
:10749000284698476DE7C989039004F11006032038
:1074A0001A46009003AB3046CDE904610BF008FCAE
:1074B0000028D6D1AB6BD0E7E189039004F1100628
:1074C00003201A46009003AB3046CDE904610BF06F
:1074D000F7FB00287FF44DAF6B6BD7E7286A00F00D
:1074E0001BF86A8EA98B92B2FFF726FF00289FD166
:1074F0003FE7AA8B286AADF80E2040F20511ADF8DF
:107500000C10CDE9043300F007F803A9FFF716FFCC
:107510006DE700BF983A00208088704776DF70479B
:107520008FDF704790DF7047B1DF7047B5DF70477E
:1075300010B5074B03600446806A09F027FDE06A36
:1075400009F024FD206B08B109F020FD204610BD94
:10755000587B030010B5094B03600446806A09F0AC
:1075600015FDE06A09F012FD206B08B109F00EFD6F
:1075700020460CF04FFA204610BD00BF587B030098
:1075800070B504460D4692E80300A5800E0CA0617C
:10759000A183144DA67717201B2156892560E08012
:1075A0009589D089E181D179658101222275227482
:1075B000A08161741846194626819DF8105008F084
:1075C00003FF2946A062284608F0FEFE4FF48851CA
:1075D00000234FF6FF72E182E062628223636375EB
:1075E000204670BD587B0300007D7047407D70478A
:1075F000C07D113818BF0120704700BF407C704724
:10760000C0887047008970474B7D10B44BB11F3163
:107610000C688A888B79046082805DF8044B8371E2
:1076200070471831F4E700BF08B513218088FFF7D1
:1076300075FFB0FA80F0400908BD00BF08B56621AB
:10764000806A09F01BFB003818BF012008BD00BF8D
:1076500008B500231A461946806A08F0E7FE00388C
:1076600018BF012008BD00BF818800F11F02407CC7
:1076700002F09ABB38B50A4605460C468188407C24
:1076800002F07EFB2146012051F8483FC5F81F302B
:107690008B888A7985F82520A5F82330687538BD50
:1076A00038B50A4604460D4600F11801407C02F048
:1076B000B1FB607550B1294651F8483FC4F81F30FE
:1076C0008B888A7984F82520A4F8233038BD00BF40
:1076D00010B5447D24B100F11F01407C02F078FB1D
:1076E000204610BD70B50B88113B82B00C46054694
:1076F000462B2BD8DFE803F0383B2A2A2A2A2A2AED
:107700002A422A2A2A2A2A2A50585E642A2A2A2AFF
:107710002A2A2A2A2A2A2A2A2A2A2A2A2A2A2A2AC9
:107720002A672A942A2A2A2A2A2A2A2A2A2A2A2A12
:107730002A2A2A2A2A2A2A2A2A246A2A752C8400F2
:107740000023A8881A461946FFF7EEFE02B070BD66
:107750008B79002BFAD1006BAB750028F6D01A4656
:10776000194608F063FEF1E700230375EEE74B8945
:1077700003818B894381CB898381E7E70B7AC375CA
:10778000112BE3D0818800F11F02407C02F0FAFB4C
:1077900003460028DAD1D4E7002301A98088ADF898
:1077A0000430FFF7BDFED1E70B7A002BCED14B7A28
:1077B0000374CBE7002211468088FFF7B3FEC5E7CC
:1077C0000B89C381C2E74B89C380BFE7006B0123EC
:1077D000AB750028BAD000231A46194608F026FED9
:1077E000B4E7417C164801F09DFAE38801469942CE
:1077F00028BF194689B2A888E980FFF797FEA5E758
:107800008B79002BA2D0002600231A461946A86ABD
:1078100008F00CFE0136A279F3B29A42F4D895E74B
:107820008B7A002B92D0002600231A461946E86A6C
:1078300008F0FCFD0136A27AF3B29A42F4D885E74B
:10784000983A002070B58AB086880B4606A84FF497
:107850002851144605934FF6FF7500F081FD012075
:10786000CDE90105059B0094314606AA044800F0C5
:1078700073F8044606A800F061FD20460AB070BD0A
:10788000203B002010B50446043002F0CBF9034B36
:10789000236000232375204610BD00BF0100FFFFB9
:1078A000017D01B1704710B50446043002F0C4F9FF
:1078B0000123237510BD00BF007D70470B88322B5C
:1078C00010B504D0332B1ED0302B0FD010BD4A89F9
:1078D00032B100230133DBB29342FBDBCB881BB315
:1078E000041D2046BDE8104002F018BACB88041DE4
:1078F000002BF6D14B89002BF3D00A3120460A2207
:1079000002F0F4F9EDE7CB88002BE9D14A89002A8F
:10791000E6D002EB42025200041D023292B20A315A
:10792000204602F0E3F9DCE702EB8202F3E700BF56
:10793000A0DF704710B5044600F5F87002F072F948
:107940002046F82200210CF041FEF822A018002168
:107950000CF03CFE204610BD2DE9F04782B00546F4
:10796000BDF82C60BDF830402048ADF80460BDF88B
:1079700028A0ADF80640904699460F4601F0DAF986
:1079800005F5F875064603E0FFF73CFE08F04AFCF3
:10799000284602F0A9F904463046002CF4D1012112
:1079A000284602F049F952464946284602F060F955
:1079B00008F10401384601AAFFF7BAFF30B12846A2
:1079C00002F044F9204602B0BDE8F0874FF4FA71A6
:1079D000284602F053F920EAE074284602F036F90E
:1079E000A4B2204602B0BDE8F08700BF983A00205C
:1079F0002DE9F04F8F880D8885B0884604463946BA
:107A0000864801F097F9A5F11003012B814640F259
:107A1000908094F854203AB3002633461633502D04
:107A200054F823A069D0512D1AD198F80630B8F82F
:107A300008B0022B53D0BBF1000F11D0514668465D
:107A4000FFF7DAFBBDF800305B4559D0514602A87C
:107A5000FFF7D2FBBDF80C305B4551D094F85420B1
:107A60000136F3B29342D9D394F84C31002B00F095
:107A7000D18004F5A679002604E094F84C31013653
:107A8000B34220DD59F8040FFFF760FCB842F4D18F
:107A9000382D03D0392D01D0362DEED1B8F80AA0FB
:107AA000BAF1000FE9D0D9F800B05846FFF752FC00
:107AB0005045E2D158464146FFF74EFC94F84C3110
:107AC0000136B342DEDC112D55D0352D04D1B8F886
:107AD0000A30002B40F08F8005B0BDE8F08F98F899
:107AE0000E30062BA7D1DAF800305046DB6841464D
:107AF00098474846FFF77CFDB0E7B8F806B09AE72C
:107B0000DAF800305046DB68414698474846FFF7B0
:107B10006FFD0028A2D0502DA0D1514602A8FFF73A
:107B20006BFBBDF80C305B4598D14846FFF79CFDD8
:107B300094E72378002B3FF46CAF0026112D3346D9
:107B40000CD004EB83033946586803685B68984798
:107B500001362278F3B29A42F3D85AE704EB830352
:107B60003946586803681B68984701362278F3B293
:107B70009A42F3D84DE7D3B10026334605E094F896
:107B80004C210136F3B29A4211D904EB8305D5F8A2
:107B90005001FFF7DBFBB842F1D1D5F85001FFF7F8
:107BA000D1FB013694F84C21F3B29A42EDD894F807
:107BB000F820002A90D000252B4604EB8303D3F84D
:107BC000FC008388BB420AD00135EBB2934283D2DA
:107BD00004EB8303D3F8FC008388BB42F4D1036831
:107BE0001B689847013594F8F820EBB29342E4D330
:107BF00005B0BDE8F08F04F5F874B8F80C20204605
:107C000008F1100102F072F8204605B0BDE8F04F0F
:107C100002F084B8112D7FF458AFC8E7983A0020DD
:107C200090F85420272A0CD810B4034602F1160409
:107C3000013280F8542043F8241001205DF8044BF1
:107C400070470020704700BF0378132B06D800EB65
:107C50008302013303700120516070470020704798
:107C600078DF70477ADF7047054A034692E80300E1
:107C7000002283E80300C3E902221846704700BFD0
:107C8000607B030008B5FFF7EDFF08B1002008BDD9
:107C9000FFF7E6FFB0FA80F0400908BDF8B500250F
:107CA0000D4F2E4601E0142D14D0A9B2384601F034
:107CB00041F8013504460028F5D0FFF795FC00286F
:107CC000F1D02046FFF79AFC012804BF0136F6B236
:107CD000142DEAD13046F8BD983A002081607047F3
:107CE000C1607047704700BF8ADF704730B40D4CE9
:107CF000C4621F25002250248584A025C0E91122DA
:107D0000C0E90F22A0F84650A0F84840006230BCFD
:107D10008262028680F838204263C264A0F8502054
:107D2000704700BF000180002DE9F04F10468DB074
:107D300016460C4600F030FBC5B2102D4FD0B66889
:107D400007220623A16994F81C9001918DF80D205B
:107D50008DF80C30ED080DF10C080DF10E0A00271E
:107D6000B9F1010F0A97CDE90477CDE90677CDE99E
:107D70000877CDF82B700ED998F8000001994B4682
:107D80004A7882420FD00A78D4432344013213F058
:107D9000FF031144F4D108F10108C245E0D10020ED
:107DA0000DB0BDE8F08F11F8024B013CE4B2224661
:107DB00004A80CF0E3FB0DF1100B1CB9EBE714F079
:107DC000FF04E8D058462A4631460CF0C9FB641B34
:107DD000AB440028F3D101200DB0BDE8F08F04368C
:107DE00003220223AEE700BF2DE9F0430B888E8803
:107DF000103B87B00D4604460D2B2CD8DFE803F06E
:107E000077072B2B2B2B2B2B2B2B2B842B2E836AA7
:107E1000F340DB071FD55648FEF704FED8B9A36A26
:107E200094F82C20012505FA06F623EA0606A66238
:107E30008AB994F82D3073B11F232462A38404F10E
:107E4000200104F14400FFF74FFF20B9494800F03A
:107E500089FF84F82C5007B0BDE8F08390F92E20FC
:107E600091F91B309A423ADC90F8383001F1080859
:107E70000BB3DFF80491002602E0D6B2B34218D962
:107E8000636BCDF8089003EB061302AA59680391BF
:107E9000D3E902734146204605930497FFF744FF58
:107EA000074602A800F04AFA94F83830721C002FF6
:107EB000E3D09E4213D094F82F30002B49D095F890
:107EC0002430012B0BD9296A4A78FF2A30D00A784E
:107ED000D0430344013213F0FF031144F4D104F101
:107EE00020010020FFF700FF07B0BDE8F083CB7B47
:107EF000022BB0D1836A012202FA06F63343002234
:107F0000836280F82C20A6E70B7A012BA3D10025F1
:107F100080F82C50174800F039FF226C002A9AD0C4
:107F2000009502AB2946284602950AF0C9FE92E761
:107F300011F8025B6A1ED2B2022A28BF022202A8EE
:107F40000CF01CFB012DCAD0228EBDF808309A42DD
:107F5000C5D1E26B002A3FF47EAF01230093404677
:107F600002AB2421CDF808800AF0AAFE73E700BF17
:107F7000A83A0020983A0020887B030046DF70472B
:107F80007FDF704780DF704785DF704786DF70478F
:107F900038B51C460D4603461146284622469847EA
:107FA00034B1014600222846BDE83840FFF7EABF59
:107FB00038BD00BF10B50C4682B003466946204666
:107FC00098476A4620460121FFF7DCFF02B010BD4A
:107FD000044A026003210022C0E91622C0E91822E7
:107FE0000171704731071003012070470B7803F0CF
:107FF000FE03042B01D00020704770B515468CB0ED
:108000000C462022002104A80CF0E0FA28686968D8
:10801000AA68EB686D460FC59DF800109DF80F200B
:108020009DF801609DF80E509DF802008DF80F102C
:1080300023469DF80D108DF800209DF803208DF843
:108040000E608DF801509DF80C609DF804508DF87D
:108050000D008DF802109DF80B009DF805108DF8AD
:108060000C209DF80A208DF803608DF80B508DF8D8
:1080700004008DF805208DF80A109DF8061033F8DD
:10808000042FADF810209B789DF809209DF81D0065
:108090009DF810609DF81F508DF809108DF806208E
:1080A0009DF811109DF81E208DF81D309DF80730A9
:1080B0008DF812008DF81F609DF808009DF8136080
:1080C0008DF810508DF81E109DF81C509DF814105E
:1080D0008DF811208DF808309DF81B209DF81A307E
:1080E0008DF807008DF81C608DF813509DF8156011
:1080F0008DF81B108DF8142068468DF815309DF80A
:1081000019109DF817209DF818309DF816508DF81D
:1081100018208DF816108DF817308DF81A608DF82C
:108120001950FFF72BFF62789DF82F309DF82E0035
:108130009DF82D108DF821009A428DF8221004F13F
:10814000010404D0012080F001000CB070BD627801
:10815000C3B29A4204F10104F4D16278CBB29A42DC
:10816000F0D10020EFE700BF08B5137CDB0758BF54
:108170001C32084602F11201FFF706FFB0FA80F048
:10818000400908BDF0B58E880C4699B005463146C9
:10819000474800F0CFFD2388133B0746072B29D81B
:1081A000DFE803F036515D287128042A237AABB941
:1081B000637B9B070ED402A83946FFF725FA029885
:1081C000BDF80C209DF80E3085F85430C5F84E00EF
:1081D000A5F852203846A91DFFF74CFA2A6E4AB17D
:1081E000247A022300210093084604ABCDE90464FD
:1081F0000AF066FD19B0F0BD6A6E002AFAD00123BC
:1082000000210093084604AB04960AF059FDF1E7FB
:10821000AB1D002405F12202049305F13E03CDE9D4
:108220000823CDE90544CDE90A440794FFF7E6F9B0
:1082300001280CBF2A4622462146304604ABFFF7F0
:108240009FFE19B0F0BD04A9FFF72AFA034640B318
:1082500004A93046002312AAFFF798FECAE7AB6DC7
:10826000002BC7D0A57B0493042304F1080005F07C
:10827000010500930F4A059604AB0621CDE90605DA
:108280000AF01EFDB6E7EC6D002CB3D002230021EE
:108290000093094A084604ABCDE904460AF010FDF4
:1082A000A8E730461A461946FFF770FEA2E700BF5E
:1082B000983A0020917F0200B57F0200A8DF704746
:1082C000704700BF30B5044683B0083000F074F842
:1082D00004F10C010DF106020120FFF7EFFF054646
:1082E00028B9044B04481C602146FFF7ADFC284622
:1082F00003B030BD943A0020203B002030B44C68DD
:10830000C460D1E90241054A054D0260054A856015
:10831000C0E90441426030BC704700BF707B03007D
:10832000887B03000000111183790B70C3791370EF
:10833000704700BF62DF704763DF7047704700BF60
:1083400010B504460BF066FB204610BD034A0260E0
:108350000022C0E90222827182807047887B03007C
:1083600010B4054C8180002201210460C0E9022282
:108370005DF8044B81717047887B0300002210B4C4
:10838000044C046081605DF8044B82718280C2609D
:10839000704700BF887B03008379012B0AD0826875
:1083A00032B9C26822B9012B8CBF802000207047EF
:1083B00080207047102070472DE9F047857982B002
:1083C000002D47D1C7680646002F47D0102007F080
:1083D00037FF824638460CF0E4FF441E30B3DFF826
:1083E0008490A84604E00134023C1FD4102D1DD017
:1083F00017F804C0BCF12D0F07EB0402F3D099F875
:108400000030ADF805808DF8043012F8013C8DF88D
:1084100004301022002101A88DF805C00DF07CF871
:108420006B1C023C0AF80500DDB2DFD5C6F808A0D7
:10843000BAF1000F0ED0B11D5046FFF77BFFB168B7
:10844000321D1020FFF778FFB0FA80F0400902B02B
:10845000BDE8F087012002B0BDE8F087D0F808A0A1
:10846000E6E700BF7C7B03004BDF704710DF7047FF
:108470007CDF70477DDF704760DF704769DF7047E2
:1084800061DF704766DF704767DF7047704700BF86
:1084900013200AF0BBBD00BF30B5124C124D83B0A3
:1084A000D4F878034FF0FF3108F0E8FB0028F7D04C
:1084B0006DB101A8FFF7D8FF0528F1D00028F8D149
:1084C0000198831E012BF4D807F024FEF1E701A8E0
:1084D000FFF7CAFF0528E3D001A8FFF7C5FF05286D
:1084E000F5D1DDE7983A0020150103002DE9F04FA2
:1084F0002DED028B4FF4FA7089B007F0A1FEB24E59
:1085000000F1080308EE103A054606F5747706F503
:10851000227AD6F874034FF0FF3108F0AFFB002841
:10852000F7D04FF4FA730DF116012846ADF8163066
:10853000FFF7A6FF10B10528F3D1EAE7B5F80490DC
:10854000B9F1130F00F2398106EB8903D3F88443A4
:108550003CB129462046FFF7C5F89C482946FFF75D
:1085600011FE2B88013B1B2B5AD8DFE813F01601B4
:108570005900590059005900590059005900590033
:10858000590059005900590059005900B4001C0005
:108590005900590059005900590059005900590013
:1085A00059005900A200DFF838824FF0000B58F84C
:1085B000040F30B1FFF718F818B10BF1010B5FFA97
:1085C0008BFBB845F3D1BBF1000F06D196F8803391
:1085D0001BB1594613200AF003FD2046FFF70EF8A1
:1085E000012800F0EC80F26962B10223002195F8C5
:1085F00008C00093084606ABCDF81890CDF81CC013
:108600000AF05EFB09F1E00806EB8803586810B138
:1086100003685B68984706EB88080023C8F80430B5
:1086200029465046FEF778F969482946FFF7DCFBF2
:10863000B6F882334B452B8800F0B480102B1ED047
:108640002CB32046FEF7DAFF012803D15E48294605
:10865000FFF748FB2046FEF7D1FF02281BD05D48FC
:10866000FFF72AF900BB5C482946FFF7C1F9D6F8A5
:10867000D833002B3FF455AF2846984751E7EB7BA2
:10868000012BDDD1AB88A6F88233002CD9D14E481E
:108690002946FFF727FB51482946FEF7E3F94D48E5
:1086A000FFF70AF90028DED04A482946FFF706F905
:1086B000D9E7D6F8D423002AB2D00223002195F9B5
:1086C00008C00093084606ABCDF81890CDF81CC042
:1086D0000AF0F6FAA4E74FF00008D6F87C03CDF8CC
:1086E00000804346424603213D4C09F04DFE54F8BC
:1086F000040F30B1FEF778FF18B108F101085FFAF6
:1087000088F8BC42F3D196F880336BB1B8F1000120
:1087100018BF012113200AF063FC96F880331BB1C7
:10872000012113200AF05CFC09F1E00806EB880443
:10873000606820B103685B68984700236360EB7B47
:10874000012B0BBF96F8623396F8683396F86343B3
:1087500096F86943039334200BF05AF906EB880826
:10876000039B009418EE102A04464946FEF708FFC2
:108770002046C8F80440FEF741FF012832D0B26914
:10878000002A3FF44DAF012300210093084606ABB9
:10879000CDF818900AF094FA42E700214846FFF716
:1087A00071FE3DE7102B3FF46AAF112B7FF448AF09
:1087B0004FF6FF73A6F8823342E70446D1E6F2682B
:1087C000002A7FF412AF1DE7983A0020B83A002043
:1087D000843D0020D83D0020203B0020A83A002006
:1087E000183E0020B268002A3FF41AAF0021009022
:1087F00006AB0846CDF818900AF062FA10E700BF01
:1088000038B50446FFF730FA04F11000FEF7F6F829
:1088100004F12000FFF7DCFB04F18800FFF78AF881
:1088200004F52270FDF776FF04F53370FDF7F8FECE
:1088300004F53B70FFF75AFA04F55070FFF722F881
:1088400015481649164AC4F864234FF440630025BE
:10885000C4F8583340F20113C4E9D701A4F86833CF
:10886000A4F86A5304F56170294650220BF0AEFE5D
:1088700001224FF6FF73A4F86C5384F86E53C4E9D9
:10888000DD55C4E9F555C4F87C5384F88023A4F879
:108890008233204638BD00BF010A170003000101E2
:1088A0001700030004290BD8DFE801F00B130B1BA2
:1088B0000300104BC0F85E3340F20313A0F862339C
:1088C00070470D4BC0F85E3340F20113A0F86233DD
:1088D00070470A4BC0F85E3340F20113A0F86233D0
:1088E0007047074BC0F85E334FF48173A0F86233D2
:1088F000704700BFF7006400170003001700020074
:1089000080000600F0B5AE4E80F86C138DB0336970
:1089100080F86D230446AB49039303A8FFF7A6FD37
:1089200018B1002528460DB0F0BD0990CDE90A0028
:10893000A54A94F85D33049209A901208DF82430EA
:10894000FFF79CFD0028ECD194F86D330B90CDE936
:108950000900181E18BF012094F86C538DF82700E9
:10896000049A8DF8263009A940208DF82550FFF78C
:1089700085FD0028D5D194F85C130990034661F376
:108980000003CDE90A00049A8DF8243009A9A0203B
:10899000FFF774FD0028C4D1D4F858330A900B9027
:1089A000049A099309A9A120FFF768FD0028B8D10E
:1089B00094F86C33002B40F0B48094F86D33002BA6
:1089C00047D00023B4F86473049A0993022509A9D7
:1089D0002320CDE90A338DF82450ADF82670FFF737
:1089E0004DFD00289DD1CDE9090094F86D73B4F8D0
:1089F00066330B90049A8DF8245009A920208DF835
:108A00002670ADF82830FFF739FD002889D109908C
:108A1000CDE90A0094F86833049A8DF8245009A926
:108A200022208DF82630FFF729FD00287FF479AF4A
:108A3000CDE9090094F869330B90049A8DF824501D
:108A400009A921208DF82630FFF718FD00287FF4B2
:108A500068AF04A8FFF710FD00287FF462AFCDE9EE
:108A6000070040F0010307A902208DF81C30FFF732
:108A70000BFD00287FF455AF2046FFF703F90546AC
:108A800000283FF44EAF04F12000FFF7ADFA337D2C
:108A90004E498DF80830102202A8FFF7E9FC0028A3
:108AA0007FF43FAF94F86D33002B40F084800322B5
:108AB0000021012007F046FCC4F8740300283FF4AD
:108AC00030AF05AB0326CDE900634149414800239F
:108AD0004FF4A06208F0F8FB32460021012007F0B5
:108AE00031FCC4F8780300283FF41BAF06ABCDE996
:108AF0000063394939480023C82208F0E5FB384BA8
:108B00004FF480021A60374B00930023184601226D
:108B10004FF4807109F0E2FBC4F87C0301F00AF91C
:108B200000E70990CDE90A00B4F85E33049AADF885
:108B30002630012509A923208DF82450FFF79EFC3B
:108B400000287FF4EEAECDE9090094F86C73B4F818
:108B500060330B90049A8DF8245009A920208DF8D9
:108B60002670ADF82830FFF789FC00287FF4D9AED5
:108B70000990CDE90A0094F86233049A8DF82450E4
:108B800009A922208DF82630FFF778FC00287FF411
:108B9000C8AECDE9090094F863330B90049A8DF8C0
:108BA000245009A921208DF82630FFF767FC002802
:108BB0003FF403AFB5E604F11000FDF72DFF76E7B3
:108BC000E87B03008D84020000360020CC7B03008C
:108BD000E07B0300ED840200E47B03009984020043
:108BE00000E100E09184020000B5084B85B01B7DD8
:108BF000019108468DF80C300CF0D3FB019982B23C
:108C000003A8FFF735FC05B05DF804FBE87B030023
:108C100000B583B008460DF10601ADF80620FFF758
:108C200029FC20B99DF8060003B05DF804FB002084
:108C300003B05DF804FB00BF30B41A4A0B4605468A
:108C400007CA84B001AC03C49DF9040022709842A5
:108C5000194620D09DF905308B421CD09DF9063075
:108C60008B4218D09DF907308B4214D09DF9083003
:108C70008B4210D09DF909308B420CD059B19DF92F
:108C80000B308B4207D09DF90C308B4203D0002073
:108C900004B030BC7047012085F86E1304B030BCBE
:108CA000704700BF007C030090F96E03704700BF5F
:108CB00080F88013704700BF70B5044682B0D0F8CA
:108CC0007C030D4609F08CFB4FF47A7206460023B4
:108CD000A90DA8020BF022FA002302460421D4F8C1
:108CE0007C03009309F050FB0EB102B070BD0096FA
:108CF000D4F87C0333463246032109F045FB02B029
:108D000070BD00BF132906D800EB8101D1F88403A0
:108D100008B1FEF769BC0020704700BFB0F88203BD
:108D2000704700BF01290CBFB0F85E03B0F86403C0
:108D3000704700BF13299ABF00EB8101D1F884036B
:108D40000020704710B5064C0021D4F8780307F0D6
:108D500009FED4F874030021BDE8104007F002BEFC
:108D6000983A002090F8803303B9704710B582B06C
:108D7000D0F87C4308F098FC00230246009320467C
:108D8000012109F001FB02B010BD00BFF0B583B0B6
:108D9000002405462346D0F87C0300942246032194
:108DA00009F0F2FA05F5607605F5747756F8040FC8
:108DB00020B1FEF719FC08B10134E4B2BE42F5D18E
:108DC00095F8803343B1211E18BF0121132003B051
:108DD000BDE8F0400AF004B903B0F0BD0148FFF768
:108DE0000FBD00BF983A00200020704708B518302A
:108DF000FEF724FA003818BF012008BD30B585B051
:108E0000044641F60F016846FFF7AAFA6946204674
:108E1000FFF774FA25466846FFF790FA084B45F8C5
:108E2000183B684642F61921FFF79AFA6946284628
:108E3000FEF760F96846FFF781FA204605B030BDBD
:108E4000147C030030B583B00446FFF73BFA08B149
:108E500003B030BD0546122104F118000190FEF761
:108E60008FF901982A461121FEF7A2F901980121F4
:108E7000FEF78CF9019803B0BDE83040FDF756BE0F
:108E80003CDF70473DDF704711DF704713DF7047ED
:108E9000B0DF7047B2DF70472DE9F0419EB0074662
:108EA00004A8158814460E46FEF7A6F9BDF8103042
:108EB000AB4202D01EB0BDE8F081A379043B022B87
:108EC000F8D939465248FFF735FF4FF00008022322
:108ED000394605463046CDE90688CDE908888DF843
:108EE0001830FEF7EBF906A900286AD03846ADF82D
:108EF0001C80FFF7CDFF247B012CDBD1454E414682
:108F00003E2230460BF062FB23460DF10E02424931
:108F100038460824ADF80E40FFF7BCFF68462946E6
:108F2000FEF772FB00983060BDF804309DF8062013
:108F3000B271B3802846FEF75BFB002849D1354962
:108F400036484FF6FF740B4601311B7883EA142331
:108F500083EA131242EA042283EA131382EA0332F9
:108F600082EA431381429CB2EDD12A4B2C489C8764
:108F70000021FDF7EFFB2846FEF756FBFF210020FE
:108F8000FFF780FFB1210020FFF77AFF002891D181
:108F9000FFF77AFF00288DD1224B4FF0FF324FF0C0
:108FA0001024C3F88020C3F880216069FFF76EFFAA
:108FB00000287FF47FAF80F31488606900F014FE0E
:108FC00078E740F2FD133846ADF81C30FFF760FF3C
:108FD00070E70AA92846FEF763FB0028AFD01EAB56
:108FE00013E903000B0C3060B180B37118AC0FCCE7
:108FF0000D4FC6F807000AAC7960BA60FB600FCC71
:1090000018360FC694E8070086E8070097E700BF08
:10901000983A0020807F0020B47F0020BC7F002091
:10902000203D002000E100E0877F002030B585B0C2
:1090300004460E496846FFF7A1F969462046FFF746
:109040005DF925466846FFF779F9094B45F8183B65
:1090500008496846FFF792F969462846FEF74AF83C
:109060006846FFF76BF9204605B030BD207C030051
:10907000687C0300407C030030B5B3B00546FFF7C1
:1090800021F918B10446204633B030BD2D491CA843
:10909000FFF774F91CA906A8FEF72CF81CA8FFF727
:1090A0004DF906A8FEF768F806A80421FEF768F84F
:1090B00006A81421FEF768F806A8FDF737FD044658
:1090C00098B905F1180018210190FEF759F8019898
:1090D0001721FEF759F801981B490122FEF776F88F
:1090E0000198FDF723FD044628B106A8FDF704FD0D
:1090F000204633B030BD154902A8FFF73FF902A959
:109100001CA8FDF7F7FF02A8FFF718F91CA8FEF747
:1091100033F802211CA8FEF733F802211CA8FEF741
:1091200035F81CA8FDF702FD044618B901211CA85A
:10913000FEF7A4F81CA8FDF7DFFC06A8FDF7DCFC91
:10914000D6E700BF307C0300998E0200507C0300FC
:10915000C16180F83D207047016380F8422070476C
:1091600070B584B0044641F60A016846FFF7F8F886
:1091700069462046FFF7C2F86846FFF7DFF8204649
:109180000E4B40F8183B242200210BF01FFA0C4E26
:109190000C480D4AE06200232364E36384F8443002
:1091A0001025052113232046E66184F83D5084F8FC
:1091B0004110226384F8423004B070BD847C030007
:1091C000CC7B0300747C0300907A03002DE9F04708
:1091D0009AB00646FFF776F88046002846D1336AF3
:1091E000002B4ED0736A002B56D0C6F5275909F1D3
:1091F000270906F1140406F1380706F13C0554F876
:10920000043F04A873B3FDF745FF2268B36B09EB75
:1092100005019A4289B2684608BF42F65021FFF71D
:109220009FF8694604A8FDF79BFF6846FFF786F89C
:1092300004A8FDF7A1FF022104A8FDF7A1FF2978EA
:1092400004A8FDF7A3FF04A8FDF770FC824604A85C
:10925000BAF1000F0ED12A782168FDF7D3FF04A8D8
:10926000FDF74AFCBC4205F10105C8D140461AB0E1
:10927000BDE8F087FDF740FCD04640461AB0BDE897
:10928000F08709F0C7FD04460CF08BF8736A34626E
:1092900086F83E00002BA8D109F07CFD04460CF0B6
:1092A00080F8746286F83F009FE700BFD0F8D8309E
:1092B000988980B2704700BF70B582B006460846F4
:1092C0001C460192FDF756FF019905462246D0F84B
:1092D000D8000AF03BFC844206D9D5F8F0301BB127
:1092E000211A89B230469847D5F8E83023B1304684
:1092F00002B0BDE87040184702B070BD08B592B228
:10930000D0F8D8000AF070FC08BD00BF00B583B0EB
:10931000D0F8D8000DF1070200210AF0A1FC20B11D
:109320009DF8070003B05DF804FB4FF0FF30F9E74C
:10933000D0F8D8000AF0F8BBD0F8C030988980B2D5
:10934000704700BFD0F8C0000AF0EEBB10B501684E
:109350000C4A8C69944282B00BD1D0F8D80001221B
:109360000DF107010AF040FC40B19DF8070002B082
:1093700010BD01220DF10701A047F5E74FF0FF30C6
:10938000F5E700BFFD92020000B583B0D0F8C00041
:109390000DF1070200210AF063FC20B19DF80700DF
:1093A00003B05DF804FB4FF0FF30F9E710B550F85B
:1093B000181C0D4A8C69944282B00CD018380122D6
:1093C0000DF10701A04718B19DF8070002B010BDCC
:1093D0004FF0FF30FAE701220DF10701D0F8C0008D
:1093E0000AF002FCEFE700BFFD9202002DE9F04F0A
:1093F00050F8183C83B004463F48D3F828800F4605
:109400001646FFF78BFC3D4B9845054609D0A4F165
:10941000180033463A462946C44603B0BDE8F04F2B
:10942000604701463448FFF785FC8346002850D04A
:1094300004F1100948462946FDF740FF002848D0AE
:1094400094F8CC30002B3CD0D4F8C800C8B31FFA35
:1094500086FA524639460AF079FBD4F8C8309B891F
:10946000804658461FFA83FBFEF7CAF80338834547
:1094700025DB21482946FFF75DFC50B3FEF7C0F815
:10948000033882B21046019206F0DAFE834600B33A
:10949000019AD4F8C80059460AF0A6FB0346F0B971
:1094A000584606F0E7FE464509D9AAEB08039BB2E9
:1094B00007EB080229464846FDF730FF58B1B04691
:1094C00009E03A4629464846B3B2FDF727FF00288F
:1094D000F5D14FF00008404603B0BDE8F08F5A4682
:1094E00029464846FDF71AFF0446584606F0C2FED4
:1094F000002CD8D1EDE700BF983A00201D9902005A
:109500002DE9F04150F8183C84B004463B489E6A6F
:109510008DF80F10FFF702FC394B9E42054609D02B
:10952000A4F11800294601230DF10F02B04704B041
:10953000BDE8F08101463148FFF7FCFB064650B319
:1095400004F1100738462946FDF7B8FE18B394F821
:10955000CC30002B49D0D4F8C800002845D00DF1FC
:109560000F0101220AF0F2FAD4F8C8309B89804634
:1095700030469EB2FEF744F8033886420DDA0120E9
:10958000D5E7324629463846FDF7C8FE0446304640
:1095900006F070FEF4B90020C9E718482946FFF725
:1095A000C9FB0028F7D0FEF72BF8C21E92B2104676
:1095B000019206F045FE06460028ECD0019AD4F848
:1095C000C80031460AF010FB03460028D9D13046C6
:1095D00006F050FEB8F1000FD1D10DF10F0229466F
:1095E00038460123FDF79AFEA1E7294638460123B4
:1095F0000DF10F02FDF792FE99E700BF983A0020A7
:109600001D9902002DE9F04105683B4BAD6A82B01F
:109610009D428DF8072065D1044638480E46FFF775
:1096200089FB054600284FD004F12807384631460B
:10963000FDF744FE002847D094F8E430002B47D0D3
:10964000D4F8E000002843D00DF1070101220AF010
:109650007DFAD4F8E0309B89804628469DB2FDF71C
:10966000CFFFC31E9D4244DB24483146FFF762FB17
:1096700050B3FDF7C5FF033882B21046009206F0E2
:10968000DFFD054600B3009AD4F8E00029460AF051
:10969000ABFA68B9284606F0EDFDB8F1000F28D105
:1096A0000DF10702314638460123FDF737FE0CE085
:1096B00003462A4631463846FDF730FE0446284622
:1096C00006F0D8FD002CE8D1002002B0BDE8F08102
:1096D0003146384601230DF10702FDF71FFE02B0A7
:1096E000BDE8F08101230DF10702A84702B0BDE8F3
:1096F000F0810120E9E700BF1D990200983A00209F
:109700002DE9F04F036883B0044641489E6A8846BD
:109710001746FFF703FB3F4B9E42054661D10146CA
:109720003B48FFF707FB0646002855D004F12809FF
:1097300048462946FDF7C2FD00284DD094F8E43094
:10974000002B41D0D4F8E00000283DD01FFA87FA62
:10975000524641460AF0FAF9D4F8E0200346304672
:10976000B2F80CB01E46FDF74BFF1FFA8BFB033817
:10977000834524DB26482946FFF7DCFA60B3FDF772
:109780003FFF033882B21046019206F059FD83462E
:1097900010B3019AD4F8E00059460AF025FA48BB04
:1097A000584606F067FDB74209D9AAEB06039BB2FB
:1097B00008EB060229464846FDF7B0FD68B13E4673
:1097C000304603B0BDE8F08F424629464846BBB25A
:1097D000FDF7A4FD0028F2D10026304603B0BDE815
:1097E000F08F01463B4642462046B44603B0BDE8F2
:1097F000F04F604703465A4629464846FDF78EFD1E
:109800000446584606F036FD002CCCD1E4E700BFF4
:10981000983A00201D9902002DE9F041036882B0BA
:1098200004463C489E6A8DF80710FFF777FA3A4BDA
:109830009E420546014663D13648FFF77BFA06464D
:1098400000284FD004F1280738462946FDF736FD99
:10985000002847D094F8E430002B47D0D4F8E0003B
:10986000002843D00DF1070101220AF06FF9D4F866
:10987000E0309B89804630469EB2FDF7C1FEC31E94
:109880009E4245DB23482946FFF754FA50B3FDF7C3
:10989000B7FE033882B21046009206F0D1FC0646AD
:1098A00000B3009AD4F8E00031460AF09DF968B997
:1098B000304606F0DFFCB8F1000F29D10DF10702A8
:1098C000294638460123FDF729FD0CE003463246C0
:1098D00029463846FDF722FD0446304606F0CAFC0C
:1098E000002CE8D1002002B0BDE8F08129463846BE
:1098F00001230DF10702FDF711FD02B0BDE8F08173
:10990000204601230DF10702B04702B0BDE8F08107
:109910000120E8E7983A00201D9902002DE9F04F58
:10992000044683B0384890461F460E46FFF702FAB9
:10993000002856D004F12809054631464846FDF76F
:10994000BDFC00284DD094F8E430002B41D0D4F871
:10995000E00000283DD01FFA87FA524641460AF03F
:10996000F5F8D4F8E02003462846B2F80CB01D46BE
:10997000FDF746FE1FFA8BFB0338834524DB2248A4
:109980003146FFF7D7F960B3FDF73AFE033882B2EC
:109990001046019206F054FC834610B3019AD4F8A5
:1099A000E00059460AF020F900BB584606F062FC78
:1099B000BD4209D2AAEB05039BB208EB0502314672
:1099C0004846FDF7ABFC68B13D46284603B0BDE80C
:1099D000F08F424631464846BBB2FDF79FFC002857
:1099E000F2D10025284603B0BDE8F08F03465A4661
:1099F00031464846FDF792FC0446584606F03AFCCC
:109A0000002CD5D1EDE700BF983A002070B584B0A6
:109A100004460E4668461E49FEF7B0FC69462046DD
:109A2000FEF76CFC6846FEF789FC1A4B1A4903F1F5
:109A30000802002548334FF47A70C4E906352260E5
:109A400020626846FEF79AFC694604F12800FDF79B
:109A500051FB6846FEF772FC10496846FEF78EFC23
:109A6000694604F18000FDF745FB6846FEF766FC99
:109A70002046C4E93A55C4F8D850A4F8DC60C4F8CC
:109A8000F050C4F8E05084F8E45004B070BD00BF5A
:109A9000B87C0300C87C0300A87C0300987C03000A
:109AA00010B50D4B0446D0F8E00023604033A361AD
:109AB00010B103685B68984704F18000FDF71CF85B
:109AC00004F12800FDF718F82046044B40F8083B45
:109AD000FEF734FC204610BDD07C0300707B0300F1
:109AE00010B50F4B0446D0F8E00023604033A3616B
:109AF00010B103685B68984704F18000FCF7FCFF35
:109B000004F12800FCF7F8FF2046064B40F8083B1C
:109B1000FEF714FC204609F07DFF204610BD00BF73
:109B2000D07C0300707B030070B5044682B018201F
:109B300009F06EFF00220546012109F0D5FF2846F5
:109B4000B4F8DC10C4F8D85009F0E0FF2046FEF766
:109B5000B9FB054610B1284602B070BD01211E4870
:109B6000FFF7E0F804F1280603461021304601967D
:109B70001E46FDF705FB2A4601981121FDF718FB4B
:109B800001983146FDF700FB01981449FDF732FBBF
:109B90000198FCF7CBFF05460028DCD104F18000DA
:109BA0000C210190FDF7ECFA01980D490122FDF717
:109BB00005FB112201982946FDF7FAFA0198314672
:109BC000FDF7E2FA01980749FDF714FB019802B08E
:109BD000BDE87040FCF7AABF983A0020907C0300D3
:109BE000B9920200947C0300F0B40346186880F335
:109BF00008885868FF2464B2EFF30585002D01D171
:109C0000A64600472546064621273FBAF0B4002461
:109C1000002500260027F0B4F92040B2004700BF1D
:109C2000F0BC7047002201214270C0E9012201709E
:109C3000C2818281704700BF10B50446017001B136
:109C400010BD0A2006F0C0FB606010BD037810B59F
:109C5000044643B1002301226370C4E90133E38168
:109C6000A381227010BD406807F090F9F2E700BFB1
:109C7000002381608281C381704700BF037870B583
:109C800004460D46B3B94668012363704FF47A72F7
:109C90000023A802A90D0AF041FA0146304606F059
:109CA000EDFF98B9237800264FF0FF356670A3B911
:109CB000284670BD03220021012006F043FB064622
:109CC00060600028E0D14FF0FF35F1E7E5892378A7
:109CD0000026ADB26670002BEAD0606807F056F936
:109CE0006660284670BD00BF4078704738B50446AE
:109CF0008089824228BF0246154619B1A0680AF041
:109D00003DFCA089E389A26815FA83F3401B9BB24E
:109D10002A44A081E381A260284638BD406820B172
:109D200000231A46194606F081BB7047B1DF704721
:109D3000B2DF704708B50F4806F084F80E490D48A9
:109D400000F054FB28B10D490A4800F04FFB50B118
:109D500008BD0949074800F065FB0849054800F0BF
:109D600045FB0028F4D1BDE808400449014800F053
:109D700059BB00BF743E00202C7D0300407D0300D2
:109D800070B586B00E4603230021054614460093A5
:109D9000044A0496084603AB0395059408F090FF27
:109DA00006B070BD6DA0020070B586B003231446E6
:109DB00006460D460093104603AB044A059407215E
:109DC000CDE9036508F07CFF06B070BD9DA10200DF
:109DD00030B50A4691B0897953790391117902938C
:109DE000D378094D094C019100939378527801285A
:109DF0000CBF2946214604A80BF07EFA04A90448AA
:109E000000F068FB11B030BD547D0300847D030079
:109E1000743E00202DE9F043D1B00B78032B04AF42
:109E20000D460446904668D95A08022A5ED14F4A28
:109E30004F49504BDFF84891012818BF11460022C6
:109E4000381D00F02BFD4B4907F1680000F050FC75
:109E500007F1CC0611E00246414607F1680000F028
:109E600047FD08F1380229464846FEF7BFF8044688
:109E700078BB07F1680000F0B1FD0022391D3046C3
:109E800000F0DEFD07F1D0000DC8D7F8DC10D7F8E0
:109E9000E4407B67D7F8E83097F8E0C0F8663A67A7
:109EA000B967412207F1EC0107F18800C7E92043B7
:109EB00087F87CC00AF062FB07F1680000F0BAFD89
:109EC000044607F1680044B100F0B2FB5028D0D13D
:109ED000C1E707F1680000F081FD381D00F07EFD4C
:109EE000204607F59A77BD46BDE8F083002420465A
:109EF00007F59A77BD46BDE8F083E9468CB08979CD
:109F0000AB786A78039169790291297901911A4EA7
:109F10001A49E878009004AD012C08BF3146284664
:109F200007F1CC060BF0E8F91249304600F0E0FBEF
:109F300029463046002200F095FC044650B9002422
:109F4000304600F04BFD2046CD4607F59A77BD46DA
:109F5000BDE8F083304600F06BFB021EEFDD92B2ED
:109F60004146304600F0C4FCEAE700BF407D0300F4
:109F70002C7D0300743E0020547D0300847D03008B
:109F8000B83A0020F0B5ADB095799378344E1446C8
:109F9000527803956579029594F804C0CDF804C011
:109FA000304DE478009404AF0C4601280CBF3146D4
:109FB000294607F10C000BF09FF92B4B07F10C0120
:109FC00007F13C00002200F069FC07F13C0000F0C2
:109FD00031FD40B9002407F13C0000F0FFFC2046B1
:109FE000A437BD46F0BD07F13C0000F021FB051E83
:109FF00008DD07F13C0000F0B9FC291807F13C002E
:10A0000000F096FC07F13C0000F012FB051E08DD95
:10A0100007F13C0000F0AAFC291807F13C0000F011
:10A0200087FC07F13C0000F003FB0028D2DDC31DD4
:10A0300023F007036D46ADEB030D82B204A907F1CF
:10A040003C00C7E9001200F053FC2046D7E900129B
:10A050000323FFF76BFEB0FA80F46409AD46BAE75C
:10A06000547D0300847D0300743E0020F0B5B5B03C
:10A0700092F84E5092F84A30434E144692F84920D6
:10A08000039594F84D50029594F84C50019594F82E
:10A090004B5000950D463D4904AF012818BF31468D
:10A0A00007F12C000BF028F9394807F12C0100F0DA
:10A0B0009DF96E4600284AD1354B07F12C0107F176
:10A0C0005C00012200F0EAFB07F15C0000F0B2FC4A
:10A0D00018B9C437B546BD46F0BD502107F15C0044
:10A0E00000F0D4FA5022214607F15C0000F00CFA8F
:10A0F0000023294627487B61C7E90333C7E90633B4
:10A10000C7E90833BB62FEF715FE07F10C012022F8
:10A11000FDF798FB3B7B03B307F10C000BF041F913
:10A12000013082B2C1B207F15C007A6000F0AEFA91
:10A130007A6807F10C0107F15C0000F0E5F907F11E
:10A140005C0000F04BFCC437B546BD46F0BD07F1DE
:10A150002C010F4800F0BEF9AEE794F8491094F8CE
:10A160004D3094F84E20039194F84A10029194F8DF
:10A170004B10019194F84C10009107F10C00064926
:10A180000BF0BAF8C8E700BF847D0300547D0300DC
:10A19000743E0020983A0020B47D03002DE9F0437E
:10A1A000ADB00C4604AF00210323064615462046F9
:10A1B00007F10A027981FFF7BBFD7B89E84623B9E5
:10A1C000A437C546BD46BDE8F0830733DB08A8EBDE
:10A1D000C3039D460DF11009204607F10A024946C6
:10A1E0000323FFF7A5FD04460028E9D1A979AB7840
:10A1F0006A78039169790291297901913D483E4934
:10A20000ED780095012E08BF014607F10C000BF018
:10A2100073F83A4B07F10C0107F13C00012200F002
:10A220003DFB07F13C0000F005FC0028C8D02146AA
:10A2300007F13C0000F07CFB07F13C0000F0F8F96E
:10A24000041E08DD07F13C0000F090FB211807F127
:10A250003C0000F06DFB07F13C0000F0E9F9041E42
:10A2600008DD07F13C0000F081FB211807F13C00FC
:10A2700000F05EFB07F13C0000F0DAF97C8980B267
:10A28000A04213D0E1B207F13C0000F0FFF92246F2
:10A29000494607F13C0000F037F907F13C0000F0B7
:10A2A0009DFBA437C546BD46BDE8F083E31D6D4662
:10A2B000DB08A5EBC3039D4604A9224607F13C0039
:10A2C000796000F015FB79687A8948460AF048F908
:10A2D00008B9AD46E1E707F13C0000F063FB7B897C
:10A2E000DB43191807F13C0000F022FBAD467C89E6
:10A2F000C8E700BF547D0300847D0300743E002046
:10A30000704700BF10B5044609F084FB204610BD1D
:10A3100038B50A4B04460D46442240F80C3B002158
:10A320000AF054F90023A560237104F154010120BF
:10A3300006F02CFA2065204638BD00BFDC7D030006
:10A3400070B504460E46006D4FF0FF3106F096FCE6
:10A35000257955B98EB1A660314604F10C0005F09F
:10A36000CBFBB0FA80F56D0925710023206D1A46EC
:10A37000194606F05BF8284670BDA668002EF4D09A
:10A38000EAE700BF70B505464FF0FF31006D06F0FB
:10A3900075FC2B7993B1002305F10C062B71304627
:10A3A00005F0BEFC044680B10023286D1A4619460C
:10A3B00006F03CF8B4FA84F0400970BDA96805F1D4
:10A3C0000C0004F039FF0446EEE7A968304604F0BB
:10A3D00033FF04460028E7D1A968304605F08CFB1E
:10A3E00004460028E0D101232B71DDE730B5044697
:10A3F00095B00D46006D4FF0FF3106F03FFC294649
:10A4000001AA04F10C0004F0EBFC002302461946FB
:10A41000206D14461A4606F009F8B4FA84F0400993
:10A4200015B030BD2DE9F04F83B00B7800AF2F2B66
:10A4300078600CBF4C1C0C4606460D46006D4FF074
:10A44000FF3106F01BFC06F10C084FF0000917E085
:10A45000ADEB030D68468B4500F8019BEA4601DD34
:10A460000AF0B4F829465A4650460AF087F8514691
:10A47000404603F01BFD08B1113028D10134B54628
:10A4800020462F210AF067FFA0EB050B0BF1080314
:10A490006E460021044623F007035A460028D7D110
:10A4A0002946404603F002FD60B901247A68002382
:10A4B000106D19461A4605F0B9FF20460C37BD4607
:10A4C000BDE8F08F113014BF00240124EEE7002412
:10A4D000B546EBE738B504460D46006D4FF0FF3149
:10A4E00006F0CCFB294604F10C0004F0D1FC00235B
:10A4F00002461946206D14461A4605F097FFB4FA35
:10A5000084F0400938BD00BF036970B504460D46AC
:10A51000186D4FF0FF31164606F0B0FB237D4BB1AE
:10A52000002522690023106D19461A4605F07EFFAA
:10A53000284670BD2069A1692A4633460C3004F0D4
:10A5400003F820EAE075ECE770B50369044682B0D1
:10A55000186D4FF0FF3106F091FB267D4EBB206950
:10A56000A1690C3004F02EFC05462069A1698DF824
:10A57000076001230DF107020C3004F06FFB002887
:10A580002069A169C8BF9DF807602A4600F10C0048
:10A590004FF00003D8BF4FF0FF3604F0E3FB226911
:10A5A0000023106D19461A4605F040FF304602B0F0
:10A5B00070BD4FF0FF36F2E738B5036904464FF03F
:10A5C000FF31186D06F05AFB237D4BB1002522693F
:10A5D0000023106D19461A4605F028FF284638BD9D
:10A5E0002069A1690C3004F0EFFB05462069A169E0
:10A5F0000C3004F0E7FB2D1AE9E700BF036910B542
:10A6000004464FF0FF31186D06F038FB237D43B14F
:10A6100022690023106DBDE810401A46194605F066
:10A6200005BF2069A1690C3004F0F4F9F0E700BF20
:10A6300030B50369044683B0186D4FF0FF3106F062
:10A640001DFB257D55B122690023106D19461A4660
:10A6500005F0ECFE4FF0FF3003B030BD2069A1697A
:10A660000DF1070201230C3004F0F8FA23692A46A1
:10A6700004462946186D2B4605F0D8FE002CCCBFA9
:10A680009DF807004FF0FF3003B030BD30B50368D0
:10A69000164A5B6883B093428DF807101ED1036998
:10A6A00004464FF0FF31186D06F0E8FA237D53B1F0
:10A6B000002522690023106D19461A4605F0B6FEE2
:10A6C000284603B030BD2069A1690C3001230DF18B
:10A6D000070203F039FF20EAE075EAE701220DF1F5
:10A6E000070198470546284603B030BD09A502007A
:10A6F00030B4084C016100224FF47A75C0E9004281
:10A700008560C0E9062230BC027580F8202080F800
:10A7100060207047F87D0300F0B5836997B0044668
:10A720000E46174693B1057D006919460C30002D81
:10A7300045D003F0BBFDA06905F09CFDE069002356
:10A74000A36108B105F096FD0023E361206903AA27
:10A750000C30314604F044FB054658BB9DF80C30E4
:10A76000112B33D02C2005F06BFD0146A06118B3EE
:10A77000206932460C3003F071FD002847D10123D7
:10A78000237530460AF00DFE013005F059FD3146C3
:10A79000E0610AF0EDFD2F2130460AF01DFE203465
:10A7A00000B1461C3146204640220AF002FE01203C
:10A7B00017B0F0BD02350FD0002017B0F0BD04F087
:10A7C000ABF9A06905F056FDA561BFE737B3012FCE
:10A7D000E1D140F2031322E0012FEDD1382005F042
:10A7E0002FFD0146A0610028E6D0206940F2031346
:10A7F0000C30324603F0F6FD054620BB2069A16906
:10A800000C3002232A4604F0ADFA2575C3E7A0698F
:10A8100005F030FD2846A56117B0F0BD01233820B2
:10A82000019305F00DFD019BA06101460028C3D0F6
:10A83000206932460C3003F0D5FD20B9012F08D035
:10A8400000232375A7E7A06905F014FD0020A0618F
:10A85000B3E72369A169024603F10C00022304F067
:10A8600081FAEDE730B5036983B004460D46186DF3
:10A8700001924FF0FF3106F001FA019A2946204675
:10A88000FFF74AFF2169002302461446086D1A4665
:10A89000194605F0CBFD204603B030BD70B5044627
:10A8A0000025C4E906551148236182B0206084F870
:10A8B000205084F860504FF47A700E46A0604FF03C
:10A8C000FF31186D65602575019206F0D7F9019A80
:10A8D00031462046FFF720FF22692B46106D29469E
:10A8E0002A4605F0A3FD204602B070BDF87D0300A6
:10A8F000036970B504460D46186D4FF0FF311646DA
:10A9000006F0BCF9237D4BB1002522690023106DB0
:10A9100019461A4605F08AFD284670BD2069A169CE
:10A920002A4633460C3004F099F90546EDE700BF9E
:10A9300038B5036904460D46186D4FF0FF3106F037
:10A940009DF9237D4BB1002522690023106D194626
:10A950001A4605F06BFD284638BD2069A1692A46D4
:10A960000C3004F0FFF9C543ED0FEDE738B503698E
:10A9700004464FF0FF31186D06F080F9237D4BB18E
:10A98000002522690023106D19461A4605F04EFD78
:10A99000284638BD2069A1690C3004F013FA054639
:10A9A000EFE700BF38B5036904464FF0FF31186D7B
:10A9B00006F064F9237D4BB1002522690023106D58
:10A9C00019461A4605F032FD284638BD2069A169AE
:10A9D0000C3004F0F9F90546EFE700BF036970B5E4
:10A9E00004464FF0FF31186D06F048F9A16981B1B6
:10A9F0002069257D0C30ADB103F058FCA06905F04D
:10AA000039FCE0690023A36108B105F033FC0023A1
:10AA1000E36122690023106DBDE870401A461946B3
:10AA200005F004BD04F078F8A06905F023FCA561E9
:10AA3000EFE700BF8069003818BF0120704700BFF2
:10AA40002DE9F04F95B00B6905460C46186D4FF097
:10AA5000FF3100AF904606F011F9002320692B75F5
:10AA600085F8203085F86030227D2B4928614FF42D
:10AA70007A70C5E90013C5E90633A860DAB342F677
:10AA80002E662069A1690C303A1D03F023FC0128D1
:10AA900031D1BB892E2BF4D0B34238D0D4F81C90DE
:10AAA00048460AF07EFC064607F10C000AF079FCE5
:10AAB0003318093323F00703EA46ADEB030D68466C
:10AAC000721C494609F05AFD99F800302F2BEB46CD
:10AAD00002D199F801301BB1104B1B882BF80630BE
:10AAE00007F10C0158460AF027FC42465946284611
:10AAF000FFF712FED54622690023106D19461A464B
:10AB000005F094FC28465437BD46BDE8F08FBB7B6A
:10AB1000002BB6D0C2E700BFF87D0300EC7D030038
:10AB20002DE9F04F85B0DDE90E4B109F81460D46B3
:10AB300090461E46002F63D0B8F1000F03D0D8F81E
:10AB40000030B34249D0D9F800002B689E422BD088
:10AB50004369B4FBF3F203FB1242BAB9BB4215D806
:10AB6000B7FBF3F203FB127AA7EB0A0300930393FC
:10AB7000436822461F4631465B46B84788B9039B67
:10AB800057469B441C44002FD6D139E00093A21AAB
:10AB9000C5E90062D0F804A0AB683146D047002870
:10ABA000CAD005B0BDE8F08F69684369A142D0D82A
:10ABB000CA18A242CDD9A2EB040ABA45AB6828BF95
:10ABC000BA46611A524658461944BF1A544409F00D
:10ABD000D5FCD344002FAFD112E0D8F80430A34203
:10ABE000B1D8D9F8000082691A44A242ADD9A2EBCB
:10ABF000040ABA45D8F8081028BFBA46E31AE1E7B4
:10AC0000002005B0BDE8F08F2DE9F04F074687B072
:10AC10000D4672B30368D1F800B090469A69D1E945
:10AC200001104AB3013A01F101098618A9EB0009A4
:10AC3000441E4FF0010A08E014F8012F9DF8173068
:10AC40009A4223D1A6423B6814D01A6A934509EB75
:10AC5000040320D20DF11702CDE90032CDF808A08F
:10AC60005B46002241463846FFF75AFF0028E3D0F2
:10AC700009DB3B68A8689A69FF2109F0A7FC4FF03F
:10AC8000FF332B60002007B0BDE8F08F6FF033007A
:10AC900007B0BDE8F08F034B034A0448122109F0C6
:10ACA000D3FB00BF147E03002C800300347E03001E
:10ACB0002DE9F04F87B0DDF840A00592002B64D05D
:10ACC000D0F800908B46D9F81C105C1EA1F1080842
:10ACD0004445074651D3B4FBF8F0013809F036FA81
:10ACE000D04500F10200A4EB8003B3FBF8F560D877
:10ACF000BAFBF8F0013809F029FA861CAAEB86069F
:10AD0000B6FBF8F6304609F021FAAAEB800006FB04
:10AD1000180AB54243D9D9F82020059B4FF0040901
:10AD20000DF114080BE0012B45D93A68126A9342E1
:10AD300041D8012101FA04F42D1BB54230D9AC1BD6
:10AD4000B4FA84F495FAA5F1C4F11F04B1FA81F1C3
:10AD50008C4228BF0C4693424FEA840132D20091C4
:10AD6000CDE90189002259463846FFF7D9FE059BF7
:10AD70000028D8D007B0BDE8F08FD04588BF134673
:10AD8000BAFBF8F00CD80025B4E711994FF0FF3268
:10AD90000A60129A1846136007B0BDE8F08F059B51
:10ADA000119A1360129B0020C3F800A007B0BDE801
:10ADB000F08F0026ADE7064B064A07484FF48F6137
:10ADC00009F042FB054B064A0348122109F03CFBFF
:10ADD000A07E03004C800300347E0300147E030039
:10ADE0002C8003002DE9F04F89B00746149C129D7A
:10ADF0008B4692461E46002C55D0DBF80030B342FD
:10AE00005CD0013340F0A18038688269B5FBF2F371
:10AE100002FB1353002B4AD1A24248D8B4FBF2F3F1
:10AE200002FB13430593E31A009304938468139B76
:10AE30002A463146A04700287ED1BAF1000F29D01A
:10AE4000049B3BB3139B5C1E049B04EB0309139B05
:10AE500005F10108A8EB030807E014F8012F9DF89D
:10AE60001F309A4266D14C4514D03B681A6A96420C
:10AE700008EB040363D2012202920DF11F02CDE917
:10AE800000325146334600223846FFF749FE00287B
:10AE9000E3D051DB139A049B059C1146194413918E
:10AEA0001D44002CA9D1002009B0BDE8F08FEB1A99
:10AEB000CBE90063DBF80030B342A2D1DBF8041029
:10AEC000A9429ED83A6892690A44AA4299D9A2EB4B
:10AED0000508A045DBF8080028BFA046691A084409
:10AEE0004246139909F04AFB386813998269454430
:10AEF0004144B5FBF2F302FB1353A4EB0804139196
:10AF0000002B7FF478AFDBF800104B1C3FF473AFDD
:10AF10000092DBE90123D0F80880C04760B95246AF
:10AF200059463846FFF770FE00283FF464AF09B079
:10AF3000BDE8F08F6FF0330009B0BDE8F08F064B2D
:10AF4000064A0748122109F07FFA064B064A0448D0
:10AF5000B72109F079FA00BF147E03002C800300AA
:10AF6000347E0300CC7E03003C8003002DE9F04FCB
:10AF70000446D2E9003091B04FF0010B0A93002350
:10AF80000B90069104F114080DF12809059323682C
:10AF900059F8045B1B6A9D427BD210230DF1300AE5
:10AFA0000022CDE901A300922B4641462046FFF73F
:10AFB000B7FD002839D1059B002B60D10D9B23F0F4
:10AFC0000043132B4FD92268D26993424BD84FF0DC
:10AFD000FF3309A810225146099304F0BFFE0D9BD0
:10AFE00023F00043102B28D0CDF81C9010260DF133
:10AFF0002307994607E001360122394609A804F0E3
:10B00000ADFEB14517D023681B6A9D4241D2012392
:10B01000CDE9017300962B46002241462046FFF7FA
:10B020007FFD0028E7D0DDF81C9010F1340F1AD016
:10B0300011B0BDE8F08FDDF81C90099B9BB99AE830
:10B040000F000BF0010610AF07EB860C069F1026D1
:10B05000FE603E467D601C365CF8185CBD6086E88C
:10B060000F0001230593BBF1020F0FD1059B002BAD
:10B0700014BF00206FF0330011B0BDE8F08F069AC6
:10B080000C9BD2699B1A002B98DAECE74FF0020B6D
:10B090007DE7034B034A0448122109F0D5F900BFAC
:10B0A000147E03002C800300347E030043680133C8
:10B0B00037D02DE9F0438368013383B0044628D0AC
:10B0C00015460E464FF000084FF001096A46294622
:10B0D000CDE90089FFF74AFFE0B905F124086B6A62
:10B0E000591C16D0AF6A7A1C13D0D6F800C09C4504
:10B0F00013D0D6F804E0BE450FD07345424629462A
:10B1000020460AD0BC4508D0FFF730FF0028E6D023
:10B1100000E0002003B0BDE8F083012003B0BDE8EB
:10B12000F0830020704700BF2DE9F041D1F820C026
:10B130000C46C9682CF00043043B01F10C069E420A
:10B1400084B0054617461FD904F12408102612E0E2
:10B15000424621462846FFF709FF90B9D4F820C09F
:10B16000A169E6602CF00043043B14311B2BA16164
:10B170004FF0100108D8BCF1000FE9DB39606FF027
:10B18000010004B0BDE8F0812A46636852F8140B50
:10B19000066AB34207F104001AD20C26CDE900106A
:10B1A0000296114628460022FFF7BAFC0028E8D193
:10B1B0007B79BA79FD79A16904331344E2683A6076
:10B1C0002B441A440B44E260A36104B0BDE8F08153
:10B1D000024B034A0348122109F036F9147E03009A
:10B1E0002C800300347E0300F0B593B000260D469A
:10B1F000012707A96A46CDE900670446FFF7B6FEB6
:10B20000064610B121E0831C22D1109B01331CD0D3
:10B21000119B013319D010AA07A92046FFF7A6FEFB
:10B22000B0B903AA07A92046FFF77EFF0028EAD19C
:10B230009DF91030002B4FF00802294605A8F0DBDD
:10B2400009F08EF90028ECD10126304613B0F0BD8C
:10B250000646304613B0F0BD2DE9F04716460024EF
:10B260000122C6E90942824688461D4606F12409A4
:10B270004A4631465046FFF779FE074668B92A46E6
:10B2800031465046FFF750FF50B1831C1FD1736AFF
:10B29000013302D0B36A0133EAD13846BDE8F08702
:10B2A0002C7904F07004202CE9D1AB68D8F8002088
:10B2B000934208D0E868D8F80410884203D08B4243
:10B2C00001D08242DBD101273846BDE8F08707462E
:10B2D000E3E700BF2DE9F04F2DED028B8DB09046D6
:10B2E0001C46099340F622032268C8F804300892ED
:10B2F000D0E90123724EC8F8082082468946C8F872
:10B300000C3000F1140B089D314628460AF078F8FD
:10B310002B46034404463146184605930AF030F89C
:10B320000128049000F0B080022804D1059B1B780E
:10B330002E2B00F0B280DDE90423134408931F464E
:10B340000124314638460AF05BF807443846314656
:10B350000AF016F878B1022802D001340744F0E769
:10B360003B782E2BF9D17B782E2BF6D1013CF5D1F1
:10B37000BB1C0893C7E7059C207800285FD0099B79
:10B380001C6098F80430222B40F08D8008F10803EF
:10B390001A464946504608EE103AFFF7E7FD0028E6
:10B3A0004DD1049B013B23440793424649465046F6
:10B3B000FFF7BAFE002842D198F8042002F07F037C
:10B3C000112B01D0222BF0D198F8073004998B4231
:10B3D000EBD1D8F8003098F8051098F80650D9F855
:10B3E000047004330B441D44049BA3B3059BCDF8A8
:10B3F00018800135DDF81C80ED1A5C1E07E014F89A
:10B40000012F9DF82F309A421ED144451FD0DAF803
:10B4100000301A6A974205EB040347D201220292D8
:10B420000DF12F02CDE9003259463B46002250462D
:10B43000FFF776FB0028E2D0DDF8188009DA0DB0BE
:10B44000BDEC028BBDE8F08FDDF81880ADE7DDF8CC
:10B45000188098F8042013067FF555AFDAF8043009
:10B4600001330CD0DAF80830013308D018EE101A86
:10B470005046FFF7B9FE00281ED198F8042002F0CC
:10B480007F0288F804203EE72B5D2E2B7FF453AF1C
:10B49000DDE904231344089335E7059B5B782E2BE5
:10B4A0007FF449AFF4E76FF01300C8E7054B064A95
:10B4B0000648122108F0C8FFC1DB6FF00100BEE7AB
:10B4C000EC7D0300147E03002C800300347E030017
:10B4D0002DE9F04F8B469DB00BF1040304930BF163
:10B4E0000C03CDE9053B016B04464FF00108002534
:10B4F000D4E90D3010E05A09E66B01385F1CA063F7
:10B50000676356F822C003F01F0208FA02F212EA3B
:10B510000C0F00F027813B469942ECD1002800F047
:10B52000F2812268E36AD2E908621944904228BF96
:10B530001046B1FBF6F306FB13112063E162E06BEA
:10B540006563D208002109F041F86368013300F017
:10B550005781A368013300F05381002201230025A5
:10B56000CDE9082304F1140701222E46D4F800C0C7
:10B57000E16ADCF82030206B591A0E44B6FBF3F573
:10B5800003FB1565854210D26909E26B05F01F05C2
:10B5900052F8213008FA05F51D4342F82150DCF835
:10B5A0002030E16A099A206B591A0A44B2FBF3F180
:10B5B00003FB112383420AD25809E16B03F01F03F6
:10B5C00051F8202008FA03F3134341F8203008AA69
:10B5D00011A92046FFF7CAFC002840F00E810C2577
:10B5E000149A24E02068129B006A834280F01A8239
:10B5F0000EA9CDE900210295002239462046FFF729
:10B600008FFA002840F0F9809DF839209DF83A30F3
:10B610009DF83B60149904321A449DF83830324446
:10B6200003F070030A44102B149200F0EB80199B76
:10B6300023F00043043B02F10C009842D2D9DDE92B
:10B640001A62701CCDE9086201D0511C8ED1D4F869
:10B650000C904D46B9F1000F00F0DE81EB69DA0382
:10B6600040F156816F69002F00F05281D4F800A09C
:10B67000DAF81C60013F083EB742C0F0CF81B7FB4B
:10B68000F6F0013808F062FD0230A7EB8002B2FB51
:10B69000F6F6D4F830E0E16A2B69079505F12C0045
:10B6A0000546DAF82020704604F114098E4601465A
:10B6B0009818A0EB0E0EBEFBF2F002FB10E28A42DD
:10B6C0000AD25709E06B02F01F0250F8271008FA5F
:10B6D00002F20A4340F82720002E00F01781DAF822
:10B6E000202006F00107C7F1020A93424FEA8A00C0
:10B6F00080F098810BA90022CDE901100092494603
:10B700002A462046FFF70CFA002876D10AF1FF3CC2
:10B71000D4F800A013E0BBFBF2F302FB13B38B429F
:10B720004FF0010014D24FEA531EE16B03F01F03E8
:10B7300051F82E2000FA03F3134341F82E30D4F8C9
:10B740002CE0DAF820200B9B216BA2EB0E0B9B4424
:10B750006045E0DB1CAB03EB8C0C023F5CF8443C27
:10B760003E44A5E72068E26A016A1344B3FBF1F2A4
:10B7700001FB1233049A42F8043BD4E90C139942BA
:10B78000049207D10FE0A26B0133013A8B42C4E966
:10B790000D3208D05D0903F01F0256F8255008FA53
:10B7A00002F22A42EFD1DDE9043293427FF49FAEE8
:10B7B000DDF818B0006ADBF8043083420BF11C029C
:10B7C00004F1140180F02E8104250192002220460C
:10B7D00002950092FFF7A4F9002840F08B80DBF877
:10B7E0001C304FF0FF32CBE9092214200133102125
:10B7F000CBE90730CBF80C1000201DB0BDE8F08F6E
:10B80000216B75E6109B002B3FF411AFD4F800A01C
:10B81000DAF81C6003F1FF3BA6F10809CB4570D3B1
:10B82000BBFBF9F0013808F091FC861CABEB8606F7
:10B83000B6FBF9F60F9BE16ADAF82020D4F830E085
:10B840009818401AB0FBF2F102FB110272450BD2BC
:10B850004FEA521CE16B02F01F0251F82C0008FA6B
:10B8600002F2024341F82C20002E3FF4B9AEDAF880
:10B87000202006F00109C9F1020A93424FEA8A002A
:10B8800080F0D0800BA90022CDE90110009239464A
:10B890002046FFF745F90028AFD10AF1FF3CD4F864
:10B8A00000A013E0BBFBF2F302FB13B373454FF0B0
:10B8B000010014D24FEA531EE16B03F01F0351F84D
:10B8C0002E2000FA03F3134341F82E30E16ADAF830
:10B8D00020200B9BD4F830E0A2EB010B9B44604589
:10B8E000E0DB1CAB03EB8C0CA9F102095CF8443CD7
:10B8F0004E44A5E710F1340F3FF471AF1DB0BDE821
:10B90000F08F064696E76FF01B0076E7079DEB6920
:10B910009B037DD52F6A002F7AD0D4F800A0DAF8E7
:10B920001C60013F083EB7427AD3B7FBF6F00138FE
:10B9300008F00CFC0230A7EB8003B3FBF6F6D4F85A
:10B9400030E0E16A6B6A079505F12C000546DAF8EC
:10B950002020704604F114098E4601469818A0EB89
:10B960000E0EBEFBF2F002FB10E28A420AD2570929
:10B97000E06B02F01F0250F8271008FA02F20A43A7
:10B9800040F82720002E42D0DAF8202006F00107E8
:10B99000C7F1020A93424FEA8A0043D20BA9002260
:10B9A000CDE90110009249462A462046FFF7B8F833
:10B9B00000287FF422AF0AF1FF3CD4F800A013E086
:10B9C000BBFBF2F302FB13B38B424FF0010014D226
:10B9D0004FEA531EE16B03F01F0351F82E2000FACB
:10B9E00003F3134341F82E30D4F82CE0DAF820208A
:10B9F0000B9B216BA2EB0E0B9B446045E0DB1CAB69
:10BA000003EB8C0C023F5CF8443C3E44A6E7079DE8
:10BA10002D68002D7FF422AE216B68E5002638E604
:10BA200000268CE7024B034A0348122108F00CFD64
:10BA3000147E03002C800300347E03002DE9F04FB8
:10BA40002DED028B9BB0012504460491A9464FF0D1
:10BA50000008D4E90D31D4F830C00FE05A09E76B83
:10BA60000139581CA163606357F8226003F01F027C
:10BA700005FA02F2324200F02A8103469C45EDD1DC
:10BA8000002900F052822368E66AD3E90802B44430
:10BA9000914228BF1146BCFBF0F300FB13C32163A6
:10BAA000E362E06BC4F83480D208002108F08EFD18
:10BAB00063680133CDD0A3680133CAD000220123CB
:10BAC000CDE906230122002004F1140796462268DE
:10BAD000E36A116A266BCB1A03EB000CBCFBF1F096
